:0200000460009A
:10000000464346420004015600000000010303007D
:1000100000000000000000000000000000000000E0
:1000200000000000000000000000000000000000D0
:1000300000000000000000000000000000000000C0
:100040001000000001040700000000000000000094
:100050000000800000000000000000000000000020
:100060000000000000000000000000000000000090
:100070000000000000000000000000000000000080
:10008000EB04180A063204260000000000000000FD
:10009000050404240000000000000000000000002F
:1000A0000000000000000000000000000000000050
:1000B0000604000000000000000000000000000036
:1000C0000000000000000000000000000000000030
:1000D00020041808000000000000000000000000DC
:1000E0000000000000000000000000000000000010
:1000F0000000000000000000000000000000000000
:10010000D8041808000000000000000000000000F3
:100110000204180804200000000000000000000095
:1001200000000000000000000000000000000000CF
:10013000600400000000000000000000000000005B
:1001400000000000000000000000000000000000AF
:10015000000000000000000000000000000000009F
:10016000000000000000000000000000000000008F
:10017000000000000000000000000000000000007F
:10018000000000000000000000000000000000006F
:10019000000000000000000000000000000000005F
:1001A000000000000000000000000000000000004F
:1001B000000000000000000000000000000000003F
:1001C000000100000010000001000000000000001D
:1001D000000001000000000000000000000000001E
:1001E000000000000000000000000000000000000F
:1001F00000000000000000000000000000000000FF
:10100000D10020410020006000000000000000002E
:1010100020100060001000600000000000000000D0
:10102000000000600000800000000000FFFFFFFFE4
:1020000000000220B52400604525006049250060DD
:10201000412500604125006041250060000000006E
:102020000000000000000000000000004D250060DE
:10203000412500600000000051250060552500602A
:10204000592500605D250060612500606525006000
:10205000692500606D2500607125006075250060B0
:10206000792500607D250060812500608525006060
:10207000892500608D250060912500609525006010
:1020800099250060412500604125006041250060E0
:102090009D250060A1250060A5250060A9250060A0
:1020A000AD250060B1250060B5250060B925006050
:1020B000BD250060C1250060C5250060C925006000
:1020C000CD250060D1250060D5250060D9250060B0
:1020D000DD250060E12500604125006041250060AC
:1020E00041250060412500604125006041250060D8
:1020F00041250060412500604125006041250060C8
:1021000041250060412500604125006041250060B7
:1021100041250060412500604125006041250060A7
:10212000E5250060E9250060ED250060F1250060EF
:10213000F5250060412500604125006041250060D3
:102140004125006041250060412500604125006077
:102150004125006041250060412500604125006067
:102160004125006041250060412500604125006057
:102170004125006041250060412500604125006047
:102180004125006041250060412500604125006037
:102190004125006041250060412500604125006027
:1021A0004125006041250060F9250060FD250060A3
:1021B0004125006041250060412500604125006007
:1021C00041250060412500604125006041250060F7
:1021D00041250060412500604125006041250060E7
:1021E0004125006041250060412500600126006016
:1021F0000526006041250060092600600D2600606C
:102200004125006041250060112600601526006010
:1022100041250060412500604125006041250060A6
:102220004125006041250060412500604125006096
:102230004125006041250060412500604125006086
:102240004125006041250060412500604125006076
:102250004125006041250060412500604125006066
:102260004125006041250060412500604125006056
:102270004125006041250060412500604125006046
:102280004125006041250060412500604125006036
:102290004125006041250060412500604125006026
:1022A000192600601D26006021260060412500607F
:1022B0002526006041250060412500604125006021
:1022C00041250060412500604125006041250060F6
:1022D00041250060412500604125006041250060E6
:1022E00041250060412500604125006041250060D6
:1022F00041250060412500604125006041250060C6
:1023000041250060412500604125006041250060B5
:1023100041250060412500604125006041250060A5
:102320004125006041250060412500604125006095
:102330004125006041250060412500604125006085
:102340004125006041250060412500604125006075
:102350004125006041250060412500604125006065
:102360004125006041250060412500604125006055
:102370004125006041250060412500604125006045
:102380004125006041250060412500604125006035
:102390004125006041250060412500604125006025
:1023A0004125006041250060412500604125006015
:1023B0004125006041250060412500604125006005
:1023C00041250060412500604125006041250060F5
:1023D00041250060412500604125006041250060E5
:1023E00041250060412500604125006041250060D5
:1023F000412500604125006041250060FFFFFFFF8F
:1024000010B5054C237833B9044B13B10448AFF32E
:1024100000800123237010BD640000200000000034
:10242000AC43006008B5034B1BB103490348AFF34D
:10243000008008BD0000000068000020AC43006080
:10244000154B002B08BF134B9D46A3F5803A002186
:102450008B460F461348144A121A01F021FF0F4B06
:10246000002B00D098470E4B002B00D0984700203F
:10247000002104000D000D48002802D00C48AFF3E5
:10248000008001F0E9FE2000290000F013FB01F0BC
:10249000CFFE00BF00000800000002200000000086
:1024A0000000000064000020E400002000000000A4
:1024B0000000000072B61648164901600A6882F3EF
:1024C0000888154880471549154A164B9A42BEBFE1
:1024D00051F8040B42F8040BF8E7134A134B9A42E5
:1024E000BEBF51F8040B42F8040BF8E7104B002074
:1024F0009A42BCBF42F8040BFAE70E490E4A00208C
:102500009142BCBF41F8040BFAE762B60B48804722
:1025100008ED00E00020006055410060D4430060F9
:1025200000000020640000206400002064000020FF
:102530006400002064000020E400002041240060CA
:10254000FFF7FEBF38480047384800473848004783
:10255000384800473848004738480047384800475F
:10256000384800473848004738480047384800474F
:10257000384800473848004738480047384800473F
:10258000384800473848004738480047384800472F
:10259000384800473848004738480047384800471F
:1025A000384800473848004738480047384800470F
:1025B00038480047384800473848004738480047FF
:1025C00038480047384800473848004738480047EF
:1025D00038480047384800473848004738480047DF
:1025E00038480047384800473848004738480047CF
:1025F00038480047384800473848004738480047BF
:1026000038480047384800473848004738480047AE
:10261000384800473848004738480047384800479E
:102620003848004738480047452500604925006084
:102630004D25006051250060552500604125006052
:102640004125006041250060412500604125006072
:102650004125006041250060412500604125006062
:102660004125006041250060412500604125006052
:102670004125006041250060412500604125006042
:102680009D3B0060BD3B0060DD3B0060FD3B0060AA
:102690001D3C00603D3C00605D3C00607D3C006096
:1026A0004125006041250060412500604125006012
:1026B0004125006041250060412500604125006002
:1026C00041250060412500604125006041250060F2
:1026D00041250060412500604125006041250060E2
:1026E00041250060412500604125006041250060D2
:1026F00041250060412500604125006041250060C2
:10270000412500604125006041250060F1B5002AA7
:102710004BD011F0030306D011F8014B013A00F839
:10272000014B42D0F5E710F003031BD1102A04DB64
:10273000103AF0C9102AF0C0FAD2130744BF30C9CA
:1027400030C0530744BF51F8044B40F8044B930783
:1027500044BF31F8024B20F8024BD30744BF0C783A
:10276000047022E0C3070AD4042A16D351F8044B9C
:10277000043A20F8024B250C20F8025BF4E7042A07
:102780000BD351F8044B043A00F8014B250A20F80A
:10279000025B260E00F8016BF1E7002A1EBF11F85C
:1027A000014B00F8014B013AF7D1F1BD034613F894
:1027B000012B002AFBD1181A0138704753B94AB9C6
:1027C000002908BF00281CBF4FF0FF314FF0FF3039
:1027D00000F06EB9ADF1080C6DE904CE00F006F81A
:1027E000DDF804E0DDE9022304B070472DE9F0478D
:1027F000089D04468C46002B40F083808A42174691
:1028000047D9B2FA82F242B1C2F1200024FA00F0B4
:102810009140974040EA010C94404FEA1748230C3E
:10282000BCFBF8F61FFA87FE08FB16C143EA01431A
:1028300006FB0EF1994209D9FB1806F1FF3080F032
:102840001981994240F21681023E3B445B1AA4B2C0
:10285000B3FBF8F008FB103344EA034400FB0EFE20
:10286000A64509D93C1900F1FF3380F00581A64542
:1028700040F2028102383C4440EA0640A4EB0E04D8
:1028800000261DB1D4400023C5E900433146BDE810
:10289000F08702B9FFDEB2FA82F2002A50D1CB1BD8
:1028A0004FEA174E1FFA87F80126B3FBFEFC210CF6
:1028B0000EFB1C3341EA034108FB0CF38B4207D9A2
:1028C00079180CF1FF3002D28B4200F2E980844685
:1028D000C91AA3B2B1FBFEF00EFB101143EA01448A
:1028E00008FB00F8A04507D93C1900F1FF3302D2DC
:1028F000A04500F2D9801846A4EB080440EA0C4039
:10290000BFE78B4209D9002D00F0B1800026C5E950
:10291000000130463146BDE8F087B3FA83F6002E59
:102920004AD18B4202D3824200F2B880841A61EB12
:10293000030101208C46002DA8D0C5E9004CA5E775
:10294000C2F1200320FA03F6974001FA02F04FEAA1
:10295000174ED9403043030CB1FBFEF61FFA87F83F
:102960000EFB161143EA014306FB08F1994204FAF3
:1029700002F409D9FB1806F1FF3C80F08D809942E2
:1029800040F28A80023E3B445B1A81B2B3FBFEF008
:102990000EFB103341EA034100FB08F38B4207D9D9
:1029A000791800F1FF3C73D28B4271D90238394457
:1029B000CB1A40EA064678E7C6F1200C03FA06F483
:1029C00022FA0CF31C4320FA0CF701FA06F34FEA43
:1029D000144E21FA0CF11F433B0CB1FBFEF91FFA18
:1029E00084F80EFB191143EA014109FB08FA8A45F4
:1029F00002FA06F200FA06F308D9611809F1FF306D
:102A000048D28A4546D9A9F102092144A1EB0A011D
:102A1000BFB2B1FBFEF00EFB101147EA014700FB0D
:102A200008F8B84507D9E71900F1FF312ED2B845AB
:102A30002CD90238274440EA0940A7EB0807A0FB3D
:102A400002894F45C64649461AD317D05DB1B3EB4C
:102A50000E0267EB010707FA0CFCF2404CEA020297
:102A6000F740C5E9002700263146BDE8F0872E462D
:102A700028460BE70646E9E61846FDE64345E5D25B
:102A8000B8EB020E69EB04010138DFE70846D2E734
:102A900060468DE78146B9E7664675E730464AE706
:102AA000ACF1020C394413E702383C4424E700BF80
:102AB000704700BF0123124E124D134C07B5ADF8FD
:102AC000043000238DF8063000F086F800F04CF852
:102AD00000F0F2FC00F074F80C4800F047FE01AA88
:102AE00003210B4801F034F9304600F03FFE29463F
:102AF000204601F0D3F8064B0822C3F88C20F3E7F8
:102B0000CD4200600046C323A0860100B4420060AD
:102B100000C01B40104A52E8003F43F00C0342E85B
:102B200000310029F7D10D4B05221A6002230C4A0F
:102B3000136053600B4A936E23F40073936602F59F
:102B4000A61241F2B00302F54E72136042F85C3CEB
:102B500042F8583C704700BF78C00F4048811F4082
:102B6000EC801F4000C00A40FFF7D4BF10B50F4CE7
:102B7000236813F0400F23460CD10D4801F0D6F91D
:102B800006222368B0FBF2F003F03F030133B0FBF1
:102B9000F3F010BD074AD2F87022D20603D4064AD9
:102BA00010681B68F0E70548FBE700BF24C00F4032
:102BB0000D00100000800D40E000002000366E0186
:102BC00010B5FFF7D3FF012203464FF4E131104661
:102BD000BDE8104000F0A8BCF0B5002185B0794BED
:102BE00000915A69784894030DD5BFF34F8FBFF316
:102BF0006F8F5A6922F400325A61C3F85012BFF342
:102C00004F8FBFF36F8F6F4B5A69D20334D50022B9
:102C1000C3F88420BFF34F8F5A6922F480325A617F
:102C2000BFF34F8F02AAC3F8702203AAC3F8702221
:102C300001AAC3F87022BFF34F8FBFF36F8FD3F891
:102C4000802043F6E075C2F3C9040192C2F34E320C
:102C5000520102EA0507214647EA81760139C3F8A5
:102C60007462F9D2203A12F1200FF2D1CDE90211AB
:102C7000BFF34F8FBFF36F8FBFF35F8F514A536A1C
:102C800023F480335362514B5A6822F001025A6098
:102C9000BFF34F8FBFF36F8F10224D49DA604D4A5B
:102CA0001A614D4ADA604D4A1A61D9601A614C4A7C
:102CB0004C49DA604C4A1A611422DA604B4A1A61B4
:102CC0001522DA604A4A1A61D9601A61494ADA6003
:102CD000494A1A61494ADA60494A1A61494ADA603E
:102CE000494A1A61009A20FA02F2012A009A66D82B
:102CF0007AB1464A22F01F0242F01A02DA60009AC4
:102D0000013A520002F03E0242F0427242F00102E9
:102D10001A613F4ADA603F4A1A613F4ADA603F4A25
:102D20001A61BFF35F8F05225A60264B5A6A42F43C
:102D300080325A62BFF34F8FBFF36F8F5A6912F41C
:102D4000803223D1C3F88420BFF34F8FD3F8802083
:102D500043F6E074C2F3C900C2F34E32520102EAF4
:102D60000406014646EA81750139C3F86052F9D27A
:102D7000203A12F1200FF2D1BFF34F8F5A6942F47B
:102D800080325A61BFF34F8FBFF36F8F0D4B5A697B
:102D900012F4003211D1BFF34F8FBFF36F8FC3F81E
:102DA0005022BFF34F8FBFF36F8F5A6942F4003246
:102DB0005A61BFF34F8FBFF36F8F05B0F0BD013283
:102DC00000928FE700ED00E00000000090ED00E0D1
:102DD000120000603F000010110000803900100355
:102DE00013000060160000202D0003063B001003B6
:102DF00021000303170020202500030318002820CA
:102E00002300030319000080310003030000202089
:102E10001B0000402B0010031C0000422700100381
:102E2000C3B2820E03F18043202A03F57C2330B520
:102E3000C0F304251C68C0F34C3001FA05F100FA18
:102E400005F081EA040100EA010080EA040018604C
:102E500005D00123024993408A6C1A42FCD130BD4F
:102E600000C00F40030A084A00F01F0002EB830273
:102E7000032303FA00F0C04352E8003F034042E856
:102E800000310029F8D1704768C00F4038B54FF4C1
:102E90000042DC4B00201A60DB4BD3F8C02242F426
:102EA0008032C3F8C022D3F8C02222F40032C3F823
:102EB000C022D64BD64A1A6000F09EFF00F0C0FF39
:102EC000012000F0B1FFD34A0121D348136823F059
:102ED000FF0343F07F031360FFF7A2FF0121CF48F8
:102EE000FFF79EFFCE4BDA6822F01F0242F013027A
:102EF000DA601A68002AFCDA0021CA48FFF790FF5E
:102F00004FF48870FFF7AEFF4FF48470FFF7AAFF0D
:102F100040F21620FFF7A6FF4FF40670FFF7A2FF5E
:102F200040F20E20FFF79EFF0321BF48FFF778FF16
:102F30000121BE48FFF774FF0021BD48FFF770FF75
:102F40004FF48A70FFF78EFF4FF48B70FFF78AFF04
:102F50001820FFF787FF1A20FFF784FF4FF48670D1
:102F6000FFF780FF0121B348FFF75AFF40F20260EC
:102F7000FFF778FF0121B048FFF752FF0021AF486B
:102F8000FFF74EFF40F20460FFF76CFF0121AC48F1
:102F9000FFF746FF0021AB48FFF742FF4FF44170B7
:102FA000FFF760FF07214FF21400974CFFF738FF3F
:102FB0000021A548FFF734FF0021A448FFF730FFA8
:102FC00040F20270FFF74EFF0121A148FFF728FFF2
:102FD0000121A048FFF724FF40F20220FFF742FF43
:102FE00001219D48FFF71CFF00219C48FFF718FFB7
:102FF0004FF48070FFF736FF4FF48170FFF732FF18
:103000004FF48270FFF72EFF4FF48370FFF72AFF13
:1030100004219348FFF704FF02219248FFF700FFC5
:103020001620FFF71FFF03218F48FFF7F9FE00214D
:103030008E48FFF7F5FE40F21250FFF713FF032111
:103040008B48FFF7EDFE01218A48FFF7E9FE0021DA
:103050008948FFF7E5FE40F21450FFF703FF032114
:103060008648FFF7DDFE01218548FFF7D9FE0021E4
:103070008448FFF7D5FE40F21650FFF7F3FE032118
:103080008148FFF7CDFE01218048FFF7C9FE0021EE
:103090007F48FFF7C5FE40F20620FFF7E3FE4FF43E
:1030A0000270FFF7DFFE40F20A20FFF7DBFE00218F
:1030B0007848FFF7B5FE00217748FFF7B1FE0E20F4
:1030C000FFF7D0FE1220FFF7CDFE40F20670FFF7AB
:1030D000C9FE1020FFF7C6FE1420FFF7C3FE4FF411
:1030E000E160FFF7BFFE01216C48FFF799FE022166
:1030F0006B48FFF795FE4FF4A360FFF7B3FE1C206B
:10310000FFF7B0FE0C20FFF7ADFE4FF48C70FFF719
:10311000A9FE40F20230FFF7A5FE40F20630FFF7AD
:10312000A1FE40F21A50FFF79DFE40F20E60FFF73D
:1031300099FE00215B48FFF773FE00215A48FFF714
:103140006FFE40F20A30FFF78DFE01215748FFF76E
:1031500067FE03215648FFF763FE05215548FFF738
:103160005FFE40F20E50FFF77DFE01215248FFF74F
:1031700057FE07215148FFF753FE03215048FFF740
:103180004FFE40F20250FFF76DFE01214D48FFF760
:1031900047FE07214C48FFF743FE03214B48FFF74A
:1031A0003FFE4FF44070FFF75DFE01214848FFF7F6
:1031B00037FE07214748FFF733FE03214648FFF754
:1031C0002FFE00214548FFF72BFE454800F042FE48
:1031D000444800F061FE1B21002000F0A1FF1021F7
:1031E000012000F09DFF1821022000F099FF10211E
:1031F000032000F095FF00F089FE4FF480323A4B37
:103200001A6073E0DC00002000800D40E000002028
:1032100000366E0100C00F40186C00801439001495
:103220000000084014EA00041468008010E0004028
:1032300014FB00801CE0078024EB00801C30008021
:1032400024F000801C3100801427008014260080A8
:1032500018FD0080186800803CEB00803C6900800D
:1032600018FA00801864008024790080186E0080AD
:1032700028E6008028E007801C6A00802CE6008099
:103280002CE007801C6C008028F6008028F0078066
:103290001C6E008038F307803832008020E20780FF
:1032A0002068008024E007802426008038EC00801D
:1032B00018F7008038EF008030F9008030F6008089
:1032C0003074008030EC008030E90080306700808E
:1032D00028E9008028F90080207300800C200080FD
:1032E000E8420060F042006074800D40D4F8702124
:1032F00022F40042C4F87021D4F8702122F40002B4
:10330000C4F87021226F42F400522267D4F8A02042
:1033100022F40052C4F8A020D4F8A02022F4E03215
:1033200042F48032C4F8A0200022C4F8B020012268
:10333000C4F8C020D4F8A020D4F8701122F441526F
:1033400041F0404122F03F02C4F8701142F40222E1
:1033500042F01F02C4F8A020D4F8A030002BFBDA02
:103360004FF480354A4B1D6000F0D8FD494B1D607D
:10337000D4F8E03023F0030343F00103C4F8E03055
:10338000D4F8E03043F40053C4F8E030D4F8E0302F
:1033900023F00C03C4F8E030D4F8E03043F4801399
:1033A000C4F8E030D4F8E03043F40013C4F8E0305F
:1033B00000F0A6FD384B032138481D60236A43F412
:1033C00000532362FFF72CFD00213548FFF728FD4D
:1033D00000213448FFF724FD00213348FFF720FD8A
:1033E000D4F8603123F01F03C4F860312F4B1A6EFC
:1033F00022F070021A661A6E22F00F0242F00102E9
:103400001A661A6E22F460021A661A6E22F4F81214
:1034100042F490121A661A6E22F480721A661A6EBC
:1034200022F080021A661A6E22F080721A66A3F5E4
:10343000A0235A6822F007025A605A6822F0380224
:103440005A605A6822F0C0025A605A6822F44072E8
:103450005A605A6822F440625A609A6822F09F6269
:1034600022F4E0229A605A6822F400325A605A68C4
:1034700022F480225A605A6922F080525A615A69B5
:1034800022F000525A610A4B0A4A1A6038BD00BF46
:10349000A8800D40E4800D4024800D40187200800B
:1034A00014390014186C00801C26008000C00F40E6
:1034B000000000200046C323FFF7E8BC07B50190D9
:1034C0000648037C3BB18368012201A9984701208B
:1034D00003B05DF804FB4FF0FF30F9E780000020F7
:1034E000F0B5002404700C6824B930234370012324
:1034F0001846F0BD002B00F1010514BF37275727F0
:1035000026460135B4FBF2F402FB1463092B94BF89
:1035100003F13001F9182B46B24203F8011DA3EB69
:103520000003EDD9E4E70000012A30B587B019D1D6
:103530000D4D00248DF8120028462A74ADF8104075
:103540008DF813408DF81440CDE90131074B01A9E6
:10355000039300F019F9064B2046AB60054BEB6076
:1035600007B030BD0120FBE7800000200000010112
:1035700045380060253800607A4B2DE9F04F1B7C00
:103580008FB080460C46002B00F0E5800025A94650
:10359000AB462E46039598F80000002800F0DD8029
:1035A000252834D008F101080135FFF787FFF2E73D
:1035B0000A22884602FB0A3AAAF1300A98F801303A
:1035C00008F10101A3F130000928F1D92E2B05D112
:1035D000884611F8013F303B092BF9D998F8017062
:1035E000642F17D0692F15D007F0DF03462B1DD0AD
:1035F000582B1BD0A7F16203DBB2132B00F2A9807A
:10360000594A22FA03F3DB0776D5012320E04FF075
:10361000000AD3E754F8043B0A2202A905A8029342
:103620000123FFF75DFF05AB83461E18582F22D0FC
:10363000782FEAD1002354F8042B03A905A801939D
:1036400003921022FFF74CFF05AB83461E18019B27
:103650006F2F05D0622F03D0702F0ED0752F20D181
:1036600054F8042B6F2F039238D030D8622F08BF44
:103670004FF002090DE00123DDE754F8042B04A903
:1036800003A8019304920422FFF740F84FF01009B9
:10369000019B4A4603A905A8FFF722FF05AB834615
:1036A0001E185F46BA451FDCAAEB0B03DA45B8BF0C
:1036B00000231D4446B1374606EB050A3878AAEBCD
:1036C00007053E46013FA0B908F1020863E7702FE5
:1036D00007D0752F08BF4FF00A09DAE74FF0080945
:1036E000D7E74FF01009D4E720200137FFF7E6FEB7
:1036F000D8E7FFF7E3FEE1E7632F05D154F8040BA9
:103700000135FFF7DBFEDFE7732F22D154F8047B8E
:10371000002FD9D03846FFF749F8834603469A452B
:1037200010DCAAEB0B03D345C8BF00231D44A5EB57
:10373000070A0AEB070517F8010B0028C4D0FFF7AA
:10374000BDFEF6E720200193FFF7B8FE019B013391
:10375000E5E73846D4E74FF0FF3528460FB0BDE81F
:10376000F08F00BF80000020016008000FB407B593
:1037700004A951F8040B0191FFF7FEFE03B05DF8B8
:1037800004EB04B07047000030B587B00C46054626
:1037900001A800F055F963680193237A8DF8083089
:1037A000637A8DF80B30A37A003B18BF01238DF8A4
:1037B0001530E37A003B18BF01238DF81430E37B0A
:1037C0002BB1042B28BF0423013B8DF80C30237C44
:1037D0002BB1042B28BF0423013B8DF80D30237B34
:1037E00001A9A07B003B226818BF01238DF80E3091
:1037F000637B003B18BF01238DF80F3040F20113AB
:10380000ADF81230064B53F8200000F04BF818B911
:10381000A37B2B7007B030BD42F6AF70FAE700BF54
:103820000443006008B5064B007853F8200000F010
:1038300050F9002842F6AF7008BF002008BD00BF55
:103840000443006008B5044B007853F8200000F0F2
:1038500031F9002008BD00BF0443006000F01F02E2
:10386000084B000A914003EB800003239340DA43A6
:1038700010B550E8003F13400B4340E80034002CE3
:10388000F7D110BD68C00F400346054A002052F82A
:10389000041B994202D001300928F8D1704700BFBB
:1038A000284300602DE9F84F0B684FF00A0E002600
:1038B00004460D460EFB02FA4FEA830998464FF084
:1038C000040C37465FFA8CFBBAFBF9F105319944D9
:1038D000B1FBFEF189B2012938BF01210CFB01F0D7
:1038E0000CF1010CB2FBF0F0834234BFC01A181A7D
:1038F00040459EBF80465E460F46BCF1210FE1D198
:103900006422B3FBF2F303EB43034345C0F08E8024
:103910002046C7F30C07FFF7B7FF464B032133F9E7
:103920001000FFF79BFFA368321F013E43F0020324
:10393000032A4FEA0666A360A36806F0F85623F050
:103940000203A360236998BF43F4003323F01F23CD
:1039500023F0FF031E433E432661236923F00053F7
:103960002361A269EB7B22F4E26229791B0222F037
:10397000070203F4E0630A431A43AB7B9B0003F0A6
:10398000040313436A79012A4BD1002946D023F45A
:103990000063A361EB7922695B0322F4005203F414
:1039A0000053134323616A7A2B7A43EA0243E362AA
:1039B000A36A43F08803A362A36A43F44043A3626B
:1039C0006B7B2A7B1B01616A520103F0100302F03A
:1039D000200213430B436362AB7A1BB1636A43F06B
:1039E00008036362EB7A1BB1636A43F0010363620D
:1039F000A979114B114A002918BF1A46636913436C
:103A00002A7C6361A3690AB143F400236A7C0AB18A
:103A100043F480230020A361BDE8F88F43F40063E2
:103A2000B7E70029B5D043F01003B2E740F22150C8
:103A3000F2E700BF4C43006000C01FE000C01FC0A1
:103A40001422002110B5044600F02AFC00234FF494
:103A5000E132C4E90233C4E90023238210BD00002F
:103A60004269836A03481B0C03F0C30313431840E5
:103A7000704700BFC3C0FFC110B58B070C4C04EAF0
:103A8000010407D0826A230422F4703203F4403325
:103A900013438362436903F0785323434361FFF781
:103AA000DFFF204240F21A5008BF002010BD00BFC7
:103AB00003C01FC00A44914204D143695B02FCD594
:103AC0000020704743691B02FCD511F8013BC3611C
:103AD000F1E72DE9F0478769054638050ED407F070
:103AE0001207BB1E5F425F410E4601EB020840F227
:103AF0001A59464541D10020BDE8F0870127F3E778
:103B00002846FFF7ADFF10F4002F824609D04FF48E
:103B100000212846FFF7B0FF00283CD040F21A50A1
:103B2000EAE710F4803324D04FF480312846FFF7C1
:103B3000A3FF00280CBF4FF4A46048461AF4003FCE
:103B40000AD040F21F544FF400312846FFF794FF8B
:103B500000280CBF204648461AF4802F0BD04FF4A3
:103B600080212846FFF788FF0028D7D140F21E5059
:103B7000C2E71846E2E70028BED1EB6A13F0E06F17
:103B8000BED017B9EB69DBB202E0EB6903F07F034B
:103B900006F8013BADE740F21D50ADE7044A054889
:103BA000516808B5044B5B689847BFF34F8F08BD59
:103BB0009400002000401840B8000020044A054846
:103BC000916808B5044B9B689847BFF34F8F08BDB9
:103BD0009400002000801840B8000020044A0548E6
:103BE000D16808B5044BDB689847BFF34F8F08BD19
:103BF0009400002000C01840B8000020044A054886
:103C0000116908B5044B1B699847BFF34F8F08BD76
:103C10009400002000001940B8000020044A054824
:103C2000516908B5044B5B699847BFF34F8F08BDD6
:103C30009400002000401940B8000020044A0548C4
:103C4000916908B5044B9B699847BFF34F8F08BD36
:103C50009400002000801940B8000020044A054864
:103C6000D16908B5044BDB699847BFF34F8F08BD96
:103C70009400002000C01940B8000020044A054804
:103C8000116A08B5044B1B6A9847BFF34F8F08BDF4
:103C90009400002000001A40B800002008B558B178
:103CA000064A0023A0FB0101FEF788FD001800462C
:103CB000A0F101000028FBD108BD00BFC0C62D0047
:103CC000012303FA01F112B9C0F888107047C0F857
:103CD0008410704710B50124C3690F2902F1FF3227
:103CE00004FA01F488BF103923EA0403C36194BFC6
:103CF00000F10C0300F11003042A0BD8DFE802F0F6
:103D0000030B151D2400480003211A68814022EA94
:103D10000101196010BD4C0003201A680121A04068
:103D200022EA0002A1401143F3E74C0003201A6885
:103D30000221A04022EA0002F4E7490003221868A9
:103D400002FA01F10143E4E7C3691C43C461E1E7FE
:103D500073B5002315461D4A52F8044BA04214D0F7
:103D600001330B2BF8D1012442698C4022EA040272
:103D7000E34342612A7802BB426813404360AA7859
:103D800002B0BDE87040FFF7A5BF052BEBD8104A85
:103D900032F913305A1CE6D01A0A0E4C03F01F03F6
:103DA00004EB8204032202FA03F354E8002F1A43BF
:103DB00044E80026002EF8D1D5E76A780191FFF794
:103DC0007FFF436801991C434460D8E7604300606B
:103DD0008C43006068C00F40044BD3F87032DB06A0
:103DE00002D4034B186870470248704700800D40AA
:103DF000E000002000366E010A4B4FF08042C3F80D
:103E00005821D3F87022D103FBD54FF48032C3F888
:103E10005421D3F850211204FBD54FF48032C3F85B
:103E20005821704700800D40044B102210B9C3F890
:103E300074227047C3F87822704700BF00800D409D
:103E4000034AD2F8703243F00103C2F8703270476F
:103E500000800D400F4B02791968920321F4E03184
:103E600092B20A4342F480321A601968026821F45F
:103E7000415102F07F0221F03F010A4342F4005217
:103E80001A601A68002AFCDA1A6822F480321A6072
:103E9000704700BF00800D40184B027B196B9203E6
:103EA00021F4E03192B20A4342F480321A63196B72
:103EB000027821F4405102F0010221F001010A438D
:103EC000C18942F400521A63426822F040421A65E6
:103ED000826822F040421A66428AC2F30E0242EA27
:103EE0000142017CC90389B20A431A641A6B002A91
:103EF000FCDA1A6B22F480321A63704700800D409E
:103F0000014B00221A62704700800D40024B4FF4B3
:103F100080521A67704700BF00800D40024B4FF47B
:103F20008052C3F8E020704700800D40C0F30B4181
:103F3000024600F01F0001F1804101F5582108B54B
:103F40000B68C34013F001031AD00B6813F4404F01
:103F500018D1FFF741FF0B6813F4803340F0CB809A
:103F600066498A425BD02FD8A1F5A0018A4200F0B1
:103F7000BF8009D80D2A42D0A1F580118A4245D0D0
:103F8000184608BD0020E6E75D498A42F8D15D4B3E
:103F900007EE900A93ED146AB8EE677B93ED185A1A
:103FA000B8EE466B1B6BB8EE455BDB0727EE067B76
:103FB0004CBF16231423584387EE056BFCEEC67BDB
:103FC00017EE903A0344DBE74F498A4200F08A80BB
:103FD0000FD84E498A4252D001F580018A42CFD192
:103FE000484BD3F8E03003F00303494A52F823303A
:103FF000C6E748484849824208BF0B46C0E7414BE4
:104000001B6803F07F0358434308B9E73D4B1B6926
:1040100013F0020F14BF162314234343B0E7394AA9
:1040200007EE900A136FB8EE677B92ED205A92ED7F
:10403000246A03F07F03B8EE455BB8EE466B27EECB
:10404000055B85EE067BBCEEC77B17EE101A00FB06
:104050000313116F11F4C0110DD0B1F5002F0CD066
:10406000D2F870212D490A40B2F5004F38D08A426B
:1040700086D19B0884E79B08F2E75B08F0E7214ABA
:1040800007EE900AD2F8A030B8EE677B92ED2C5A7A
:1040900092ED306A03F07F03B8EE455BB8EE466BF5
:1040A00027EE055B85EE067BBCEEC77B17EE101A8C
:1040B00000FB0313D2F8A01011F4C0110CD0B1F51D
:1040C000002F0BD0D2F8702102F04042B2F1804FA5
:1040D00006D0B2F1404FCBE79B08F3E75B08F1E76E
:1040E0005B084DE7074BD3F8E030C3F381037CE76F
:1040F000044B1B6A8CE7034642E700BF0D007000CB
:104100000D00300000800D401400E0000D00A00004
:10411000984300601500E00040787D010080800039
:10412000C000BF2301F03F018340814010B5074C20
:10413000D4F8002122EA0302802383401143134371
:10414000C4F80031C4F8001110BD00BF00800D405C
:1041500070470000304A314908B5D2F8883043F43E
:104160007003C2F888300B8923F001031B041B0C79
:104170000B812B4B1A8922F001021204120C1A81B6
:104180000A88500705D50A8822F004021204120C8E
:104190000A801A88520705D51A8822F004021204F0
:1041A000120C1A801F4B1A6890042FD51E4A5A60B1
:1041B0004FF6FF729A601A6822F0A00242F02002C5
:1041C0001A601A4B1A68D10703D51A6822F0010247
:1041D0001A60114B5A69920315D45A6912F40032CD
:1041E00011D1BFF34F8FBFF36F8FC3F85022BFF3CE
:1041F0004F8FBFF36F8F5A6942F400325A61BFF399
:104200004F8FBFF36F8FFFF7A3FF08BD4CF2205213
:104210005A604DF62812CAE700ED00E000800B401E
:1042200000000D4000C00B4020C528D910E000E080
:1042300008B5074B044613B10021AFF30080054BCE
:104240001868836A03B19847204600F031F800BF30
:1042500000000000A843006070B50D4D0D4C641BBC
:10426000A4100026A64209D10B4D0C4C00F09EF87C
:10427000641BA4100026A64205D170BD55F8043B6E
:1042800098470136EEE755F8043B98470136F2E7C8
:10429000CC430060CC430060CC430060D04300605E
:1042A00002440346934200D1704703F8011BF9E72B
:1042B000FEE700BF0D0A204750494F20447269763F
:1042C0006572206578616D706C650D0A000D0A20BD
:1042D000546865204C454420697320626C696E6B9C
:1042E000696E672E0D0A00006400000000000000E7
:1042F00001000000000000000100000000000000BC
:10430000000000000000000000401840008018403D
:1043100000C01840000019400040194000801940BA
:1043200000C0194000001A40000000000040184082
:104330000080184000C0184000001940004019409B
:104340000080194000C0194000001A40FFFF180506
:104350001C000C001801020306031A050E060000DB
:104360000000000000801B4000C01B4000001C40FB
:1043700000401C4000000C40000000420040004291
:104380000080004200C0004200801C40FFFF1A0174
:104390001E001A020C031E0140787D0180F0FA0213
:1043A00000E1F5054059730704000020F8B500BF8F
:1043B000F8BC08BC9E467047F8B500BFF8BC08BC06
:0443C0009E4670475E
:0843C4007CE0FF7F0100000016
:0443CC002524006044
:0443D0000124006064
:1043D40000A4781F0000000000000000000000009E
:1043E40000000000000000000000000000000000C9
:1043F40000000000000000000000000000000000B9
:1044040000000000000000000000000000000000A8
:104414000000000000000000000000000000000098
:104424000000000000000000000000000000000088
:044434000000000084
:04000005600024B5BE
:00000001FF
